{
  "contractName": "Farmer",
  "abi": [
    {
      "inputs": [
        {
          "internalType": "string",
          "name": "",
          "type": "string"
        }
      ],
      "name": "farmer",
      "outputs": [
        {
          "internalType": "string",
          "name": "name",
          "type": "string"
        },
        {
          "internalType": "string",
          "name": "fatherName",
          "type": "string"
        },
        {
          "internalType": "string",
          "name": "gender",
          "type": "string"
        },
        {
          "internalType": "uint256",
          "name": "dob",
          "type": "uint256"
        },
        {
          "internalType": "string",
          "name": "mobileNumber",
          "type": "string"
        },
        {
          "internalType": "string",
          "name": "aadharNumber",
          "type": "string"
        },
        {
          "internalType": "string",
          "name": "resaddress",
          "type": "string"
        },
        {
          "internalType": "string",
          "name": "district",
          "type": "string"
        },
        {
          "internalType": "string",
          "name": "state",
          "type": "string"
        },
        {
          "internalType": "string",
          "name": "signHash",
          "type": "string"
        },
        {
          "internalType": "address payable",
          "name": "farmerAddress",
          "type": "address"
        },
        {
          "internalType": "bool",
          "name": "registered",
          "type": "bool"
        }
      ],
      "stateMutability": "view",
      "type": "function",
      "constant": true
    },
    {
      "inputs": [
        {
          "internalType": "string",
          "name": "_name",
          "type": "string"
        },
        {
          "internalType": "string",
          "name": "_fatherName",
          "type": "string"
        },
        {
          "internalType": "string",
          "name": "_gender",
          "type": "string"
        },
        {
          "internalType": "uint256",
          "name": "_dob",
          "type": "uint256"
        },
        {
          "internalType": "string",
          "name": "_mobileNumber",
          "type": "string"
        },
        {
          "internalType": "string",
          "name": "_aadharNumber",
          "type": "string"
        },
        {
          "internalType": "string",
          "name": "_address",
          "type": "string"
        },
        {
          "internalType": "string",
          "name": "_district",
          "type": "string"
        },
        {
          "internalType": "string",
          "name": "_state",
          "type": "string"
        },
        {
          "internalType": "string",
          "name": "_signHash",
          "type": "string"
        },
        {
          "internalType": "string",
          "name": "auth",
          "type": "string"
        }
      ],
      "name": "registerFarmer",
      "outputs": [],
      "stateMutability": "payable",
      "type": "function",
      "payable": true
    },
    {
      "inputs": [
        {
          "internalType": "string",
          "name": "auth",
          "type": "string"
        }
      ],
      "name": "getSignatureHash",
      "outputs": [
        {
          "internalType": "string",
          "name": "",
          "type": "string"
        }
      ],
      "stateMutability": "view",
      "type": "function",
      "constant": true
    },
    {
      "inputs": [
        {
          "internalType": "string",
          "name": "auth",
          "type": "string"
        }
      ],
      "name": "getUserAddress",
      "outputs": [
        {
          "internalType": "address",
          "name": "",
          "type": "address"
        }
      ],
      "stateMutability": "view",
      "type": "function",
      "constant": true
    },
    {
      "inputs": [
        {
          "internalType": "string",
          "name": "auth",
          "type": "string"
        }
      ],
      "name": "getFarmerInfo",
      "outputs": [
        {
          "components": [
            {
              "internalType": "string",
              "name": "name",
              "type": "string"
            },
            {
              "internalType": "string",
              "name": "fatherName",
              "type": "string"
            },
            {
              "internalType": "string",
              "name": "gender",
              "type": "string"
            },
            {
              "internalType": "uint256",
              "name": "dob",
              "type": "uint256"
            },
            {
              "internalType": "string",
              "name": "mobileNumber",
              "type": "string"
            },
            {
              "internalType": "string",
              "name": "aadharNumber",
              "type": "string"
            },
            {
              "internalType": "string",
              "name": "resaddress",
              "type": "string"
            },
            {
              "internalType": "string",
              "name": "district",
              "type": "string"
            },
            {
              "internalType": "string",
              "name": "state",
              "type": "string"
            },
            {
              "internalType": "string",
              "name": "signHash",
              "type": "string"
            },
            {
              "internalType": "address payable",
              "name": "farmerAddress",
              "type": "address"
            },
            {
              "internalType": "bool",
              "name": "registered",
              "type": "bool"
            }
          ],
          "internalType": "struct Farmer.FarmerInfo",
          "name": "",
          "type": "tuple"
        }
      ],
      "stateMutability": "view",
      "type": "function",
      "constant": true
    }
  ],
  "bytecode": "0x608060405234801561001057600080fd5b50611efa806100206000396000f3fe60806040526004361061004a5760003560e01c806319b2ef7c1461004f57806328aadc59146100975780634985e85c146100d4578063820b29dc146101115780638b14991b1461014e575b600080fd5b34801561005b57600080fd5b50610076600480360381019061007191906113ae565b61016a565b60405161008e9c9b9a999897969594939291906114eb565b60405180910390f35b3480156100a357600080fd5b506100be60048036038101906100b991906113ae565b6106d5565b6040516100cb91906115e4565b60405180910390f35b3480156100e057600080fd5b506100fb60048036038101906100f691906113ae565b610837565b6040516101089190611627565b60405180910390f35b34801561011d57600080fd5b50610138600480360381019061013391906113ae565b610881565b60405161014591906117f5565b60405180910390f35b61016860048036038101906101639190611843565b610f06565b005b6000818051602081018201805184825260208301602085012081835280955050505050506000915090508060000180546101a390611a7e565b80601f01602080910402602001604051908101604052809291908181526020018280546101cf90611a7e565b801561021c5780601f106101f15761010080835404028352916020019161021c565b820191906000526020600020905b8154815290600101906020018083116101ff57829003601f168201915b50505050509080600101805461023190611a7e565b80601f016020809104026020016040519081016040528092919081815260200182805461025d90611a7e565b80156102aa5780601f1061027f576101008083540402835291602001916102aa565b820191906000526020600020905b81548152906001019060200180831161028d57829003601f168201915b5050505050908060020180546102bf90611a7e565b80601f01602080910402602001604051908101604052809291908181526020018280546102eb90611a7e565b80156103385780601f1061030d57610100808354040283529160200191610338565b820191906000526020600020905b81548152906001019060200180831161031b57829003601f168201915b50505050509080600301549080600401805461035390611a7e565b80601f016020809104026020016040519081016040528092919081815260200182805461037f90611a7e565b80156103cc5780601f106103a1576101008083540402835291602001916103cc565b820191906000526020600020905b8154815290600101906020018083116103af57829003601f168201915b5050505050908060050180546103e190611a7e565b80601f016020809104026020016040519081016040528092919081815260200182805461040d90611a7e565b801561045a5780601f1061042f5761010080835404028352916020019161045a565b820191906000526020600020905b81548152906001019060200180831161043d57829003601f168201915b50505050509080600601805461046f90611a7e565b80601f016020809104026020016040519081016040528092919081815260200182805461049b90611a7e565b80156104e85780601f106104bd576101008083540402835291602001916104e8565b820191906000526020600020905b8154815290600101906020018083116104cb57829003601f168201915b5050505050908060070180546104fd90611a7e565b80601f016020809104026020016040519081016040528092919081815260200182805461052990611a7e565b80156105765780601f1061054b57610100808354040283529160200191610576565b820191906000526020600020905b81548152906001019060200180831161055957829003601f168201915b50505050509080600801805461058b90611a7e565b80601f01602080910402602001604051908101604052809291908181526020018280546105b790611a7e565b80156106045780601f106105d957610100808354040283529160200191610604565b820191906000526020600020905b8154815290600101906020018083116105e757829003601f168201915b50505050509080600901805461061990611a7e565b80601f016020809104026020016040519081016040528092919081815260200182805461064590611a7e565b80156106925780601f1061066757610100808354040283529160200191610692565b820191906000526020600020905b81548152906001019060200180831161067557829003601f168201915b50505050509080600a0160009054906101000a900473ffffffffffffffffffffffffffffffffffffffff169080600a0160149054906101000a900460ff1690508c565b60606000826040516106e79190611aeb565b9081526020016040518091039020600a0160009054906101000a900473ffffffffffffffffffffffffffffffffffffffff1673ffffffffffffffffffffffffffffffffffffffff163373ffffffffffffffffffffffffffffffffffffffff1614610786576040517f08c379a000000000000000000000000000000000000000000000000000000000815260040161077d90611b4e565b60405180910390fd5b6000826040516107969190611aeb565b908152602001604051809103902060090180546107b290611a7e565b80601f01602080910402602001604051908101604052809291908181526020018280546107de90611a7e565b801561082b5780601f106108005761010080835404028352916020019161082b565b820191906000526020600020905b81548152906001019060200180831161080e57829003601f168201915b50505050509050919050565b600080826040516108489190611aeb565b9081526020016040518091039020600a0160009054906101000a900473ffffffffffffffffffffffffffffffffffffffff169050919050565b6108896111db565b6000826040516108999190611aeb565b9081526020016040518091039020600a0160009054906101000a900473ffffffffffffffffffffffffffffffffffffffff1673ffffffffffffffffffffffffffffffffffffffff163373ffffffffffffffffffffffffffffffffffffffff1614610938576040517f08c379a000000000000000000000000000000000000000000000000000000000815260040161092f90611b4e565b60405180910390fd5b6000826040516109489190611aeb565b90815260200160405180910390206040518061018001604052908160008201805461097290611a7e565b80601f016020809104026020016040519081016040528092919081815260200182805461099e90611a7e565b80156109eb5780601f106109c0576101008083540402835291602001916109eb565b820191906000526020600020905b8154815290600101906020018083116109ce57829003601f168201915b50505050508152602001600182018054610a0490611a7e565b80601f0160208091040260200160405190810160405280929190818152602001828054610a3090611a7e565b8015610a7d5780601f10610a5257610100808354040283529160200191610a7d565b820191906000526020600020905b815481529060010190602001808311610a6057829003601f168201915b50505050508152602001600282018054610a9690611a7e565b80601f0160208091040260200160405190810160405280929190818152602001828054610ac290611a7e565b8015610b0f5780601f10610ae457610100808354040283529160200191610b0f565b820191906000526020600020905b815481529060010190602001808311610af257829003601f168201915b5050505050815260200160038201548152602001600482018054610b3290611a7e565b80601f0160208091040260200160405190810160405280929190818152602001828054610b5e90611a7e565b8015610bab5780601f10610b8057610100808354040283529160200191610bab565b820191906000526020600020905b815481529060010190602001808311610b8e57829003601f168201915b50505050508152602001600582018054610bc490611a7e565b80601f0160208091040260200160405190810160405280929190818152602001828054610bf090611a7e565b8015610c3d5780601f10610c1257610100808354040283529160200191610c3d565b820191906000526020600020905b815481529060010190602001808311610c2057829003601f168201915b50505050508152602001600682018054610c5690611a7e565b80601f0160208091040260200160405190810160405280929190818152602001828054610c8290611a7e565b8015610ccf5780601f10610ca457610100808354040283529160200191610ccf565b820191906000526020600020905b815481529060010190602001808311610cb257829003601f168201915b50505050508152602001600782018054610ce890611a7e565b80601f0160208091040260200160405190810160405280929190818152602001828054610d1490611a7e565b8015610d615780601f10610d3657610100808354040283529160200191610d61565b820191906000526020600020905b815481529060010190602001808311610d4457829003601f168201915b50505050508152602001600882018054610d7a90611a7e565b80601f0160208091040260200160405190810160405280929190818152602001828054610da690611a7e565b8015610df35780601f10610dc857610100808354040283529160200191610df3565b820191906000526020600020905b815481529060010190602001808311610dd657829003601f168201915b50505050508152602001600982018054610e0c90611a7e565b80601f0160208091040260200160405190810160405280929190818152602001828054610e3890611a7e565b8015610e855780601f10610e5a57610100808354040283529160200191610e85565b820191906000526020600020905b815481529060010190602001808311610e6857829003601f168201915b50505050508152602001600a820160009054906101000a900473ffffffffffffffffffffffffffffffffffffffff1673ffffffffffffffffffffffffffffffffffffffff1673ffffffffffffffffffffffffffffffffffffffff168152602001600a820160149054906101000a900460ff1615151515815250509050919050565b60008b51118015610f18575060008a51115b8015610f25575060008751115b8015610f32575060008651115b8015610f3f575060008551115b8015610f4c575060008451115b8015610f59575060008351115b610f98576040517f08c379a0000000000000000000000000000000000000000000000000000000008152600401610f8f90611bba565b60405180910390fd5b600081604051610fa89190611aeb565b9081526020016040518091039020600a0160149054906101000a900460ff1615611007576040517f08c379a0000000000000000000000000000000000000000000000000000000008152600401610ffe90611c26565b60405180910390fd5b6040518061018001604052808c81526020018b81526020018a81526020018981526020018881526020018781526020018681526020018581526020018481526020018381526020013373ffffffffffffffffffffffffffffffffffffffff168152602001600115158152506000826040516110829190611aeb565b908152602001604051809103902060008201518160000190816110a59190611df2565b5060208201518160010190816110bb9190611df2565b5060408201518160020190816110d19190611df2565b506060820151816003015560808201518160040190816110f19190611df2565b5060a08201518160050190816111079190611df2565b5060c082015181600601908161111d9190611df2565b5060e08201518160070190816111339190611df2565b5061010082015181600801908161114a9190611df2565b506101208201518160090190816111619190611df2565b5061014082015181600a0160006101000a81548173ffffffffffffffffffffffffffffffffffffffff021916908373ffffffffffffffffffffffffffffffffffffffff16021790555061016082015181600a0160146101000a81548160ff0219169083151502179055509050505050505050505050505050565b60405180610180016040528060608152602001606081526020016060815260200160008152602001606081526020016060815260200160608152602001606081526020016060815260200160608152602001600073ffffffffffffffffffffffffffffffffffffffff1681526020016000151581525090565b6000604051905090565b600080fd5b600080fd5b600080fd5b600080fd5b6000601f19601f8301169050919050565b7f4e487b7100000000000000000000000000000000000000000000000000000000600052604160045260246000fd5b6112bb82611272565b810181811067ffffffffffffffff821117156112da576112d9611283565b5b80604052505050565b60006112ed611254565b90506112f982826112b2565b919050565b600067ffffffffffffffff82111561131957611318611283565b5b61132282611272565b9050602081019050919050565b82818337600083830152505050565b600061135161134c846112fe565b6112e3565b90508281526020810184848401111561136d5761136c61126d565b5b61137884828561132f565b509392505050565b600082601f83011261139557611394611268565b5b81356113a584826020860161133e565b91505092915050565b6000602082840312156113c4576113c361125e565b5b600082013567ffffffffffffffff8111156113e2576113e1611263565b5b6113ee84828501611380565b91505092915050565b600081519050919050565b600082825260208201905092915050565b60005b83811015611431578082015181840152602081019050611416565b60008484015250505050565b6000611448826113f7565b6114528185611402565b9350611462818560208601611413565b61146b81611272565b840191505092915050565b6000819050919050565b61148981611476565b82525050565b600073ffffffffffffffffffffffffffffffffffffffff82169050919050565b60006114ba8261148f565b9050919050565b6114ca816114af565b82525050565b60008115159050919050565b6114e5816114d0565b82525050565b6000610180820190508181036000830152611506818f61143d565b9050818103602083015261151a818e61143d565b9050818103604083015261152e818d61143d565b905061153d606083018c611480565b818103608083015261154f818b61143d565b905081810360a0830152611563818a61143d565b905081810360c0830152611577818961143d565b905081810360e083015261158b818861143d565b90508181036101008301526115a0818761143d565b90508181036101208301526115b5818661143d565b90506115c56101408301856114c1565b6115d36101608301846114dc565b9d9c50505050505050505050505050565b600060208201905081810360008301526115fe818461143d565b905092915050565b60006116118261148f565b9050919050565b61162181611606565b82525050565b600060208201905061163c6000830184611618565b92915050565b600082825260208201905092915050565b600061165e826113f7565b6116688185611642565b9350611678818560208601611413565b61168181611272565b840191505092915050565b61169581611476565b82525050565b6116a4816114af565b82525050565b6116b3816114d0565b82525050565b60006101808301600083015184820360008601526116d78282611653565b915050602083015184820360208601526116f18282611653565b9150506040830151848203604086015261170b8282611653565b9150506060830151611720606086018261168c565b50608083015184820360808601526117388282611653565b91505060a083015184820360a08601526117528282611653565b91505060c083015184820360c086015261176c8282611653565b91505060e083015184820360e08601526117868282611653565b9150506101008301518482036101008601526117a28282611653565b9150506101208301518482036101208601526117be8282611653565b9150506101408301516117d561014086018261169b565b506101608301516117ea6101608601826116aa565b508091505092915050565b6000602082019050818103600083015261180f81846116b9565b905092915050565b61182081611476565b811461182b57600080fd5b50565b60008135905061183d81611817565b92915050565b60008060008060008060008060008060006101608c8e0312156118695761186861125e565b5b60008c013567ffffffffffffffff81111561188757611886611263565b5b6118938e828f01611380565b9b505060208c013567ffffffffffffffff8111156118b4576118b3611263565b5b6118c08e828f01611380565b9a505060408c013567ffffffffffffffff8111156118e1576118e0611263565b5b6118ed8e828f01611380565b99505060606118fe8e828f0161182e565b98505060808c013567ffffffffffffffff81111561191f5761191e611263565b5b61192b8e828f01611380565b97505060a08c013567ffffffffffffffff81111561194c5761194b611263565b5b6119588e828f01611380565b96505060c08c013567ffffffffffffffff81111561197957611978611263565b5b6119858e828f01611380565b95505060e08c013567ffffffffffffffff8111156119a6576119a5611263565b5b6119b28e828f01611380565b9450506101008c013567ffffffffffffffff8111156119d4576119d3611263565b5b6119e08e828f01611380565b9350506101208c013567ffffffffffffffff811115611a0257611a01611263565b5b611a0e8e828f01611380565b9250506101408c013567ffffffffffffffff811115611a3057611a2f611263565b5b611a3c8e828f01611380565b9150509295989b509295989b9093969950565b7f4e487b7100000000000000000000000000000000000000000000000000000000600052602260045260246000fd5b60006002820490506001821680611a9657607f821691505b602082108103611aa957611aa8611a4f565b5b50919050565b600081905092915050565b6000611ac5826113f7565b611acf8185611aaf565b9350611adf818560208601611413565b80840191505092915050565b6000611af78284611aba565b915081905092915050565b7f4e6f7420616c6c6f776564000000000000000000000000000000000000000000600082015250565b6000611b38600b83611402565b9150611b4382611b02565b602082019050919050565b60006020820190508181036000830152611b6781611b2b565b9050919050565b7f416c6c206669656c6473206d7573742062652066696c6c656400000000000000600082015250565b6000611ba4601983611402565b9150611baf82611b6e565b602082019050919050565b60006020820190508181036000830152611bd381611b97565b9050919050565b7f416c726561647920726567697374657265640000000000000000000000000000600082015250565b6000611c10601283611402565b9150611c1b82611bda565b602082019050919050565b60006020820190508181036000830152611c3f81611c03565b9050919050565b60008190508160005260206000209050919050565b60006020601f8301049050919050565b600082821b905092915050565b600060088302611ca87fffffffffffffffffffffffffffffffffffffffffffffffffffffffffffffffff82611c6b565b611cb28683611c6b565b95508019841693508086168417925050509392505050565b6000819050919050565b6000611cef611cea611ce584611476565b611cca565b611476565b9050919050565b6000819050919050565b611d0983611cd4565b611d1d611d1582611cf6565b848454611c78565b825550505050565b600090565b611d32611d25565b611d3d818484611d00565b505050565b5b81811015611d6157611d56600082611d2a565b600181019050611d43565b5050565b601f821115611da657611d7781611c46565b611d8084611c5b565b81016020851015611d8f578190505b611da3611d9b85611c5b565b830182611d42565b50505b505050565b600082821c905092915050565b6000611dc960001984600802611dab565b1980831691505092915050565b6000611de28383611db8565b9150826002028217905092915050565b611dfb826113f7565b67ffffffffffffffff811115611e1457611e13611283565b5b611e1e8254611a7e565b611e29828285611d65565b600060209050601f831160018114611e5c5760008415611e4a578287015190505b611e548582611dd6565b865550611ebc565b601f198416611e6a86611c46565b60005b82811015611e9257848901518255600182019150602085019450602081019050611e6d565b86831015611eaf5784890151611eab601f891682611db8565b8355505b6001600288020188555050505b50505050505056fea26469706673582212209b061ae8f901b22a1a38ac0a4a59a36608b8cd6d89f902f1a8e6b0ada9b3e29764736f6c63430008130033",
  "immutableReferences": {},
  "source": "// SPDX-License-Identifier: MIT\npragma solidity >=0.4.22 <0.9.0;\n\ncontract Farmer {\n    struct FarmerInfo {\n        string name;\n        string fatherName;\n        string gender;\n        uint256 dob;\n        string mobileNumber;\n        string aadharNumber;\n        string resaddress;\n        string district;\n        string state;\n        string signHash;\n        address payable farmerAddress;\n        bool registered;\n    }\n\n    mapping(string => FarmerInfo) public farmer;\n\n    //mapping(address => FarmerInfo) public privateFarmer;\n\n    function registerFarmer(\n        string memory _name,\n        string memory _fatherName,\n        string memory _gender,\n        uint256 _dob,\n        string memory _mobileNumber,\n        string memory _aadharNumber,\n        string memory _address,\n        string memory _district,\n        string memory _state,\n        string memory _signHash,\n        string memory auth\n    ) public payable {\n        require(\n            bytes(_name).length > 0 &&\n                bytes(_fatherName).length > 0 &&\n                bytes(_mobileNumber).length > 0 &&\n                bytes(_aadharNumber).length > 0 &&\n                bytes(_address).length > 0 &&\n                bytes(_district).length > 0 &&\n                bytes(_state).length > 0,\n            \"All fields must be filled\"\n        );\n        require(!farmer[auth].registered, \"Already registered\");\n\n        farmer[auth] = FarmerInfo({\n            name: _name,\n            fatherName: _fatherName,\n            gender: _gender,\n            dob: _dob,\n            mobileNumber: _mobileNumber,\n            aadharNumber: _aadharNumber,\n            resaddress: _address,\n            district: _district,\n            state: _state,\n            signHash: _signHash,\n            farmerAddress: payable(msg.sender),\n            registered: true\n        });\n    }\n\n    function getSignatureHash(\n        string memory auth\n    ) public view returns (string memory) {\n        require(msg.sender == farmer[auth].farmerAddress, \"Not allowed\");\n        return farmer[auth].signHash;\n    }\n\n    function getUserAddress(string memory auth) public view returns (address) {\n        return farmer[auth].farmerAddress;\n    }\n\n    function getFarmerInfo(\n        string memory auth\n    ) public view returns (FarmerInfo memory) {\n        require(msg.sender == farmer[auth].farmerAddress, \"Not allowed\");\n        return farmer[auth];\n    }\n}\n",
  "sourcePath": "C:\\Users\\samra\\Desktop\\Project\\contracts\\Farmer.sol",
  "compiler": {
    "name": "solc",
    "version": "0.8.19+commit.7dd6d404.Emscripten.clang"
  },
  "schemaVersion": "3.4.14",
  "updatedAt": "2023-07-17T12:46:00.725Z",
  "networkType": "ethereum",
  "devdoc": {
    "kind": "dev",
    "methods": {},
    "version": 1
  },
  "userdoc": {
    "kind": "user",
    "methods": {},
    "version": 1
  }
}