{
  "contractName": "Government",
  "abi": [
    {
      "inputs": [
        {
          "internalType": "address",
          "name": "",
          "type": "address"
        }
      ],
      "name": "agent",
      "outputs": [
        {
          "internalType": "string",
          "name": "govid",
          "type": "string"
        },
        {
          "internalType": "string",
          "name": "email",
          "type": "string"
        },
        {
          "internalType": "string",
          "name": "district",
          "type": "string"
        },
        {
          "internalType": "string",
          "name": "state",
          "type": "string"
        },
        {
          "internalType": "string",
          "name": "signHash",
          "type": "string"
        },
        {
          "internalType": "address",
          "name": "agentAddress",
          "type": "address"
        },
        {
          "internalType": "bool",
          "name": "registered",
          "type": "bool"
        }
      ],
      "stateMutability": "view",
      "type": "function",
      "constant": true
    },
    {
      "inputs": [
        {
          "internalType": "string",
          "name": "_govid",
          "type": "string"
        },
        {
          "internalType": "string",
          "name": "_email",
          "type": "string"
        },
        {
          "internalType": "string",
          "name": "_district",
          "type": "string"
        },
        {
          "internalType": "string",
          "name": "_signHash",
          "type": "string"
        },
        {
          "internalType": "string",
          "name": "_state",
          "type": "string"
        }
      ],
      "name": "registerFarmer",
      "outputs": [],
      "stateMutability": "nonpayable",
      "type": "function"
    },
    {
      "inputs": [],
      "name": "getSignatureHash",
      "outputs": [
        {
          "internalType": "string",
          "name": "",
          "type": "string"
        }
      ],
      "stateMutability": "view",
      "type": "function",
      "constant": true
    },
    {
      "inputs": [],
      "name": "getUserAddress",
      "outputs": [
        {
          "internalType": "address",
          "name": "",
          "type": "address"
        }
      ],
      "stateMutability": "view",
      "type": "function",
      "constant": true
    }
  ],
  "bytecode": "0x608060405234801561001057600080fd5b50611128806100206000396000f3fe608060405234801561001057600080fd5b506004361061004c5760003560e01c806389dbd75a1461005157806392e423b51461006d578063c127ae41146100a3578063ebc3eee8146100c1575b600080fd5b61006b600480360381019061006691906109bc565b6100df565b005b61008760048036038101906100829190610b21565b610342565b60405161009a9796959493929190610bf7565b60405180910390f35b6100ab610659565b6040516100b89190610c89565b60405180910390f35b6100c96107f9565b6040516100d69190610cab565b60405180910390f35b600085511180156100f1575060008451115b80156100fe575060008351115b801561010b575060008151115b61014a576040517f08c379a000000000000000000000000000000000000000000000000000000000815260040161014190610d12565b60405180910390fd5b6000803373ffffffffffffffffffffffffffffffffffffffff1673ffffffffffffffffffffffffffffffffffffffff16815260200190815260200160002060050160149054906101000a900460ff16156101d9576040517f08c379a00000000000000000000000000000000000000000000000000000000081526004016101d090610d7e565b60405180910390fd5b6040518060e001604052808681526020018581526020018481526020018281526020018381526020013373ffffffffffffffffffffffffffffffffffffffff168152602001600115158152506000803373ffffffffffffffffffffffffffffffffffffffff1673ffffffffffffffffffffffffffffffffffffffff16815260200190815260200160002060008201518160000190816102789190610fb4565b50602082015181600101908161028e9190610fb4565b5060408201518160020190816102a49190610fb4565b5060608201518160030190816102ba9190610fb4565b5060808201518160040190816102d09190610fb4565b5060a08201518160050160006101000a81548173ffffffffffffffffffffffffffffffffffffffff021916908373ffffffffffffffffffffffffffffffffffffffff16021790555060c08201518160050160146101000a81548160ff0219169083151502179055509050505050505050565b600060205280600052604060002060009150905080600001805461036590610dcd565b80601f016020809104026020016040519081016040528092919081815260200182805461039190610dcd565b80156103de5780601f106103b3576101008083540402835291602001916103de565b820191906000526020600020905b8154815290600101906020018083116103c157829003601f168201915b5050505050908060010180546103f390610dcd565b80601f016020809104026020016040519081016040528092919081815260200182805461041f90610dcd565b801561046c5780601f106104415761010080835404028352916020019161046c565b820191906000526020600020905b81548152906001019060200180831161044f57829003601f168201915b50505050509080600201805461048190610dcd565b80601f01602080910402602001604051908101604052809291908181526020018280546104ad90610dcd565b80156104fa5780601f106104cf576101008083540402835291602001916104fa565b820191906000526020600020905b8154815290600101906020018083116104dd57829003601f168201915b50505050509080600301805461050f90610dcd565b80601f016020809104026020016040519081016040528092919081815260200182805461053b90610dcd565b80156105885780601f1061055d57610100808354040283529160200191610588565b820191906000526020600020905b81548152906001019060200180831161056b57829003601f168201915b50505050509080600401805461059d90610dcd565b80601f01602080910402602001604051908101604052809291908181526020018280546105c990610dcd565b80156106165780601f106105eb57610100808354040283529160200191610616565b820191906000526020600020905b8154815290600101906020018083116105f957829003601f168201915b5050505050908060050160009054906101000a900473ffffffffffffffffffffffffffffffffffffffff16908060050160149054906101000a900460ff16905087565b60606000803373ffffffffffffffffffffffffffffffffffffffff1673ffffffffffffffffffffffffffffffffffffffff16815260200190815260200160002060050160009054906101000a900473ffffffffffffffffffffffffffffffffffffffff1673ffffffffffffffffffffffffffffffffffffffff163373ffffffffffffffffffffffffffffffffffffffff161461072a576040517f08c379a0000000000000000000000000000000000000000000000000000000008152600401610721906110d2565b60405180910390fd5b6000803373ffffffffffffffffffffffffffffffffffffffff1673ffffffffffffffffffffffffffffffffffffffff168152602001908152602001600020600401805461077690610dcd565b80601f01602080910402602001604051908101604052809291908181526020018280546107a290610dcd565b80156107ef5780601f106107c4576101008083540402835291602001916107ef565b820191906000526020600020905b8154815290600101906020018083116107d257829003601f168201915b5050505050905090565b60008060003373ffffffffffffffffffffffffffffffffffffffff1673ffffffffffffffffffffffffffffffffffffffff16815260200190815260200160002060050160009054906101000a900473ffffffffffffffffffffffffffffffffffffffff16905090565b6000604051905090565b600080fd5b600080fd5b600080fd5b600080fd5b6000601f19601f8301169050919050565b7f4e487b7100000000000000000000000000000000000000000000000000000000600052604160045260246000fd5b6108c982610880565b810181811067ffffffffffffffff821117156108e8576108e7610891565b5b80604052505050565b60006108fb610862565b905061090782826108c0565b919050565b600067ffffffffffffffff82111561092757610926610891565b5b61093082610880565b9050602081019050919050565b82818337600083830152505050565b600061095f61095a8461090c565b6108f1565b90508281526020810184848401111561097b5761097a61087b565b5b61098684828561093d565b509392505050565b600082601f8301126109a3576109a2610876565b5b81356109b384826020860161094c565b91505092915050565b600080600080600060a086880312156109d8576109d761086c565b5b600086013567ffffffffffffffff8111156109f6576109f5610871565b5b610a028882890161098e565b955050602086013567ffffffffffffffff811115610a2357610a22610871565b5b610a2f8882890161098e565b945050604086013567ffffffffffffffff811115610a5057610a4f610871565b5b610a5c8882890161098e565b935050606086013567ffffffffffffffff811115610a7d57610a7c610871565b5b610a898882890161098e565b925050608086013567ffffffffffffffff811115610aaa57610aa9610871565b5b610ab68882890161098e565b9150509295509295909350565b600073ffffffffffffffffffffffffffffffffffffffff82169050919050565b6000610aee82610ac3565b9050919050565b610afe81610ae3565b8114610b0957600080fd5b50565b600081359050610b1b81610af5565b92915050565b600060208284031215610b3757610b3661086c565b5b6000610b4584828501610b0c565b91505092915050565b600081519050919050565b600082825260208201905092915050565b60005b83811015610b88578082015181840152602081019050610b6d565b60008484015250505050565b6000610b9f82610b4e565b610ba98185610b59565b9350610bb9818560208601610b6a565b610bc281610880565b840191505092915050565b610bd681610ae3565b82525050565b60008115159050919050565b610bf181610bdc565b82525050565b600060e0820190508181036000830152610c11818a610b94565b90508181036020830152610c258189610b94565b90508181036040830152610c398188610b94565b90508181036060830152610c4d8187610b94565b90508181036080830152610c618186610b94565b9050610c7060a0830185610bcd565b610c7d60c0830184610be8565b98975050505050505050565b60006020820190508181036000830152610ca38184610b94565b905092915050565b6000602082019050610cc06000830184610bcd565b92915050565b7f416c6c206669656c6473206d7573742062652066696c6c656400000000000000600082015250565b6000610cfc601983610b59565b9150610d0782610cc6565b602082019050919050565b60006020820190508181036000830152610d2b81610cef565b9050919050565b7f416c726561647920726567697374657265640000000000000000000000000000600082015250565b6000610d68601283610b59565b9150610d7382610d32565b602082019050919050565b60006020820190508181036000830152610d9781610d5b565b9050919050565b7f4e487b7100000000000000000000000000000000000000000000000000000000600052602260045260246000fd5b60006002820490506001821680610de557607f821691505b602082108103610df857610df7610d9e565b5b50919050565b60008190508160005260206000209050919050565b60006020601f8301049050919050565b600082821b905092915050565b600060088302610e607fffffffffffffffffffffffffffffffffffffffffffffffffffffffffffffffff82610e23565b610e6a8683610e23565b95508019841693508086168417925050509392505050565b6000819050919050565b6000819050919050565b6000610eb1610eac610ea784610e82565b610e8c565b610e82565b9050919050565b6000819050919050565b610ecb83610e96565b610edf610ed782610eb8565b848454610e30565b825550505050565b600090565b610ef4610ee7565b610eff818484610ec2565b505050565b5b81811015610f2357610f18600082610eec565b600181019050610f05565b5050565b601f821115610f6857610f3981610dfe565b610f4284610e13565b81016020851015610f51578190505b610f65610f5d85610e13565b830182610f04565b50505b505050565b600082821c905092915050565b6000610f8b60001984600802610f6d565b1980831691505092915050565b6000610fa48383610f7a565b9150826002028217905092915050565b610fbd82610b4e565b67ffffffffffffffff811115610fd657610fd5610891565b5b610fe08254610dcd565b610feb828285610f27565b600060209050601f83116001811461101e576000841561100c578287015190505b6110168582610f98565b86555061107e565b601f19841661102c86610dfe565b60005b828110156110545784890151825560018201915060208501945060208101905061102f565b86831015611071578489015161106d601f891682610f7a565b8355505b6001600288020188555050505b505050505050565b7f4e6f7420616c6c6f776564000000000000000000000000000000000000000000600082015250565b60006110bc600b83610b59565b91506110c782611086565b602082019050919050565b600060208201905081810360008301526110eb816110af565b905091905056fea26469706673582212201fa870c9534d0cf0f5068af6ef5a8c0e6f003ab669c291e3a865376e4274c7fe64736f6c63430008130033",
  "immutableReferences": {},
  "source": "// SPDX-License-Identifier: MIT\npragma solidity >=0.4.22 <0.9.0;\n\ncontract Government {\n    struct Govt {\n        string govid;\n        string email;\n        string district;\n        string state;\n        string signHash;\n        address agentAddress;\n        bool registered;\n    }\n\n    mapping(address => Govt) public agent;\n\n    function registerFarmer(\n        string memory _govid,\n        string memory _email,\n        string memory _district,\n        string memory _signHash,\n        string memory _state\n    ) public {\n        require(\n            bytes(_govid).length > 0 &&\n                bytes(_email).length > 0 &&\n                bytes(_district).length > 0 &&\n                bytes(_state).length > 0,\n            \"All fields must be filled\"\n        );\n        require(!agent[msg.sender].registered, \"Already registered\");\n\n        agent[msg.sender] = Govt({\n            govid: _govid,\n            email: _email,\n            district: _district,\n            state: _state,\n            agentAddress: msg.sender,\n            signHash: _signHash,\n            registered: true\n        });\n    }\n\n    function getSignatureHash() public view returns (string memory) {\n        require(msg.sender == agent[msg.sender].agentAddress, \"Not allowed\");\n\n        return agent[msg.sender].signHash;\n    }\n\n    function getUserAddress() public view returns (address) {\n        return agent[msg.sender].agentAddress;\n    }\n}\n",
  "sourcePath": "C:\\Users\\samra\\Desktop\\Project\\contracts\\Government.sol",
  "compiler": {
    "name": "solc",
    "version": "0.8.19+commit.7dd6d404.Emscripten.clang"
  },
  "schemaVersion": "3.4.14",
  "updatedAt": "2023-07-17T12:46:00.841Z",
  "networkType": "ethereum",
  "devdoc": {
    "kind": "dev",
    "methods": {},
    "version": 1
  },
  "userdoc": {
    "kind": "user",
    "methods": {},
    "version": 1
  }
}