{
  "contractName": "Insurance",
  "abi": [
    {
      "inputs": [
        {
          "internalType": "address",
          "name": "",
          "type": "address"
        }
      ],
      "name": "company",
      "outputs": [
        {
          "internalType": "string",
          "name": "companyName",
          "type": "string"
        },
        {
          "internalType": "string",
          "name": "email",
          "type": "string"
        },
        {
          "internalType": "uint256",
          "name": "interestRate",
          "type": "uint256"
        },
        {
          "internalType": "string",
          "name": "policyNumber",
          "type": "string"
        },
        {
          "internalType": "address payable",
          "name": "companyAddress",
          "type": "address"
        },
        {
          "internalType": "string",
          "name": "signHash",
          "type": "string"
        },
        {
          "internalType": "bool",
          "name": "registered",
          "type": "bool"
        }
      ],
      "stateMutability": "view",
      "type": "function",
      "constant": true
    },
    {
      "inputs": [
        {
          "internalType": "string",
          "name": "_companyName",
          "type": "string"
        },
        {
          "internalType": "string",
          "name": "_email",
          "type": "string"
        },
        {
          "internalType": "uint256",
          "name": "_interestRate",
          "type": "uint256"
        },
        {
          "internalType": "string",
          "name": "_signHash",
          "type": "string"
        },
        {
          "internalType": "string",
          "name": "_policyNumber",
          "type": "string"
        }
      ],
      "name": "signUp",
      "outputs": [],
      "stateMutability": "nonpayable",
      "type": "function"
    },
    {
      "inputs": [],
      "name": "getSignatureHash",
      "outputs": [
        {
          "internalType": "string",
          "name": "",
          "type": "string"
        }
      ],
      "stateMutability": "view",
      "type": "function",
      "constant": true
    },
    {
      "inputs": [],
      "name": "getUserAddress",
      "outputs": [
        {
          "internalType": "address",
          "name": "",
          "type": "address"
        }
      ],
      "stateMutability": "view",
      "type": "function",
      "constant": true
    }
  ],
  "bytecode": "0x608060405234801561001057600080fd5b506110cb806100206000396000f3fe608060405234801561001057600080fd5b506004361061004b5760003560e01c8062db9f3414610050578063c127ae411461006c578063c44f45fe1461008a578063ebc3eee8146100c0575b600080fd5b61006a6004803603810190610065919061095c565b6100de565b005b610074610334565b6040516100819190610ac6565b60405180910390f35b6100a4600480360381019061009f9190610b46565b6104d4565b6040516100b79796959493929190610bbe565b60405180910390f35b6100c8610763565b6040516100d59190610c58565b60405180910390f35b600085511180156100f0575060008451115b80156100fc5750600083115b8015610109575060008151115b610148576040517f08c379a000000000000000000000000000000000000000000000000000000000815260040161013f90610cbf565b60405180910390fd5b6000803373ffffffffffffffffffffffffffffffffffffffff1673ffffffffffffffffffffffffffffffffffffffff16815260200190815260200160002060060160009054906101000a900460ff16156101d7576040517f08c379a00000000000000000000000000000000000000000000000000000000081526004016101ce90610d2b565b60405180910390fd5b6040518060e001604052808681526020018581526020018481526020018281526020013373ffffffffffffffffffffffffffffffffffffffff168152602001838152602001600115158152506000803373ffffffffffffffffffffffffffffffffffffffff1673ffffffffffffffffffffffffffffffffffffffff16815260200190815260200160002060008201518160000190816102769190610f57565b50602082015181600101908161028c9190610f57565b506040820151816002015560608201518160030190816102ac9190610f57565b5060808201518160040160006101000a81548173ffffffffffffffffffffffffffffffffffffffff021916908373ffffffffffffffffffffffffffffffffffffffff16021790555060a08201518160050190816103099190610f57565b5060c08201518160060160006101000a81548160ff0219169083151502179055509050505050505050565b60606000803373ffffffffffffffffffffffffffffffffffffffff1673ffffffffffffffffffffffffffffffffffffffff16815260200190815260200160002060040160009054906101000a900473ffffffffffffffffffffffffffffffffffffffff1673ffffffffffffffffffffffffffffffffffffffff163373ffffffffffffffffffffffffffffffffffffffff1614610405576040517f08c379a00000000000000000000000000000000000000000000000000000000081526004016103fc90611075565b60405180910390fd5b6000803373ffffffffffffffffffffffffffffffffffffffff1673ffffffffffffffffffffffffffffffffffffffff168152602001908152602001600020600501805461045190610d7a565b80601f016020809104026020016040519081016040528092919081815260200182805461047d90610d7a565b80156104ca5780601f1061049f576101008083540402835291602001916104ca565b820191906000526020600020905b8154815290600101906020018083116104ad57829003601f168201915b5050505050905090565b60006020528060005260406000206000915090508060000180546104f790610d7a565b80601f016020809104026020016040519081016040528092919081815260200182805461052390610d7a565b80156105705780601f1061054557610100808354040283529160200191610570565b820191906000526020600020905b81548152906001019060200180831161055357829003601f168201915b50505050509080600101805461058590610d7a565b80601f01602080910402602001604051908101604052809291908181526020018280546105b190610d7a565b80156105fe5780601f106105d3576101008083540402835291602001916105fe565b820191906000526020600020905b8154815290600101906020018083116105e157829003601f168201915b50505050509080600201549080600301805461061990610d7a565b80601f016020809104026020016040519081016040528092919081815260200182805461064590610d7a565b80156106925780601f1061066757610100808354040283529160200191610692565b820191906000526020600020905b81548152906001019060200180831161067557829003601f168201915b5050505050908060040160009054906101000a900473ffffffffffffffffffffffffffffffffffffffff16908060050180546106cd90610d7a565b80601f01602080910402602001604051908101604052809291908181526020018280546106f990610d7a565b80156107465780601f1061071b57610100808354040283529160200191610746565b820191906000526020600020905b81548152906001019060200180831161072957829003601f168201915b5050505050908060060160009054906101000a900460ff16905087565b60008060003373ffffffffffffffffffffffffffffffffffffffff1673ffffffffffffffffffffffffffffffffffffffff16815260200190815260200160002060040160009054906101000a900473ffffffffffffffffffffffffffffffffffffffff16905090565b6000604051905090565b600080fd5b600080fd5b600080fd5b600080fd5b6000601f19601f8301169050919050565b7f4e487b7100000000000000000000000000000000000000000000000000000000600052604160045260246000fd5b610833826107ea565b810181811067ffffffffffffffff82111715610852576108516107fb565b5b80604052505050565b60006108656107cc565b9050610871828261082a565b919050565b600067ffffffffffffffff821115610891576108906107fb565b5b61089a826107ea565b9050602081019050919050565b82818337600083830152505050565b60006108c96108c484610876565b61085b565b9050828152602081018484840111156108e5576108e46107e5565b5b6108f08482856108a7565b509392505050565b600082601f83011261090d5761090c6107e0565b5b813561091d8482602086016108b6565b91505092915050565b6000819050919050565b61093981610926565b811461094457600080fd5b50565b60008135905061095681610930565b92915050565b600080600080600060a08688031215610978576109776107d6565b5b600086013567ffffffffffffffff811115610996576109956107db565b5b6109a2888289016108f8565b955050602086013567ffffffffffffffff8111156109c3576109c26107db565b5b6109cf888289016108f8565b94505060406109e088828901610947565b935050606086013567ffffffffffffffff811115610a0157610a006107db565b5b610a0d888289016108f8565b925050608086013567ffffffffffffffff811115610a2e57610a2d6107db565b5b610a3a888289016108f8565b9150509295509295909350565b600081519050919050565b600082825260208201905092915050565b60005b83811015610a81578082015181840152602081019050610a66565b60008484015250505050565b6000610a9882610a47565b610aa28185610a52565b9350610ab2818560208601610a63565b610abb816107ea565b840191505092915050565b60006020820190508181036000830152610ae08184610a8d565b905092915050565b600073ffffffffffffffffffffffffffffffffffffffff82169050919050565b6000610b1382610ae8565b9050919050565b610b2381610b08565b8114610b2e57600080fd5b50565b600081359050610b4081610b1a565b92915050565b600060208284031215610b5c57610b5b6107d6565b5b6000610b6a84828501610b31565b91505092915050565b610b7c81610926565b82525050565b6000610b8d82610ae8565b9050919050565b610b9d81610b82565b82525050565b60008115159050919050565b610bb881610ba3565b82525050565b600060e0820190508181036000830152610bd8818a610a8d565b90508181036020830152610bec8189610a8d565b9050610bfb6040830188610b73565b8181036060830152610c0d8187610a8d565b9050610c1c6080830186610b94565b81810360a0830152610c2e8185610a8d565b9050610c3d60c0830184610baf565b98975050505050505050565b610c5281610b08565b82525050565b6000602082019050610c6d6000830184610c49565b92915050565b7f416c6c206669656c6473206d7573742062652066696c6c656400000000000000600082015250565b6000610ca9601983610a52565b9150610cb482610c73565b602082019050919050565b60006020820190508181036000830152610cd881610c9c565b9050919050565b7f416c726561647920726567697374657265640000000000000000000000000000600082015250565b6000610d15601283610a52565b9150610d2082610cdf565b602082019050919050565b60006020820190508181036000830152610d4481610d08565b9050919050565b7f4e487b7100000000000000000000000000000000000000000000000000000000600052602260045260246000fd5b60006002820490506001821680610d9257607f821691505b602082108103610da557610da4610d4b565b5b50919050565b60008190508160005260206000209050919050565b60006020601f8301049050919050565b600082821b905092915050565b600060088302610e0d7fffffffffffffffffffffffffffffffffffffffffffffffffffffffffffffffff82610dd0565b610e178683610dd0565b95508019841693508086168417925050509392505050565b6000819050919050565b6000610e54610e4f610e4a84610926565b610e2f565b610926565b9050919050565b6000819050919050565b610e6e83610e39565b610e82610e7a82610e5b565b848454610ddd565b825550505050565b600090565b610e97610e8a565b610ea2818484610e65565b505050565b5b81811015610ec657610ebb600082610e8f565b600181019050610ea8565b5050565b601f821115610f0b57610edc81610dab565b610ee584610dc0565b81016020851015610ef4578190505b610f08610f0085610dc0565b830182610ea7565b50505b505050565b600082821c905092915050565b6000610f2e60001984600802610f10565b1980831691505092915050565b6000610f478383610f1d565b9150826002028217905092915050565b610f6082610a47565b67ffffffffffffffff811115610f7957610f786107fb565b5b610f838254610d7a565b610f8e828285610eca565b600060209050601f831160018114610fc15760008415610faf578287015190505b610fb98582610f3b565b865550611021565b601f198416610fcf86610dab565b60005b82811015610ff757848901518255600182019150602085019450602081019050610fd2565b868310156110145784890151611010601f891682610f1d565b8355505b6001600288020188555050505b505050505050565b7f4e6f7420616c6c6f776564000000000000000000000000000000000000000000600082015250565b600061105f600b83610a52565b915061106a82611029565b602082019050919050565b6000602082019050818103600083015261108e81611052565b905091905056fea264697066735822122030fa5433d4c477e6d3a1ccdda3dcf01c478ecdb0357e4f1a4662526d7c7a1dee64736f6c63430008130033",
  "immutableReferences": {},
  "source": "// SPDX-License-Identifier: MIT\npragma solidity >=0.4.22 <0.9.0;\n\ncontract Insurance {\n    struct InsComp {\n        string companyName;\n        string email;\n        uint256 interestRate;\n        string policyNumber;\n        address payable companyAddress;\n        string signHash;\n        bool registered;\n    }\n\n    mapping(address => InsComp) public company;\n\n    function signUp(\n        string memory _companyName,\n        string memory _email,\n        uint256 _interestRate,\n        string memory _signHash,\n        string memory _policyNumber\n    ) public {\n        require(\n            bytes(_companyName).length > 0 &&\n                bytes(_email).length > 0 &&\n                _interestRate > 0.00 &&\n                bytes(_policyNumber).length > 0,\n            \"All fields must be filled\"\n        );\n        require(!company[msg.sender].registered, \"Already registered\");\n\n        company[msg.sender] = InsComp({\n            companyName: _companyName,\n            email: _email,\n            interestRate: _interestRate,\n            policyNumber: _policyNumber,\n            companyAddress: payable(msg.sender),\n            signHash: _signHash,\n            registered: true\n        });\n    }\n\n    function getSignatureHash() public view returns (string memory) {\n        require(\n            msg.sender == company[msg.sender].companyAddress,\n            \"Not allowed\"\n        );\n\n        return company[msg.sender].signHash;\n    }\n\n    function getUserAddress() public view returns (address) {\n        return company[msg.sender].companyAddress;\n    }\n}\n",
  "sourcePath": "C:\\Users\\samra\\Desktop\\Project\\contracts\\Insurance.sol",
  "compiler": {
    "name": "solc",
    "version": "0.8.19+commit.7dd6d404.Emscripten.clang"
  },
  "schemaVersion": "3.4.14",
  "updatedAt": "2023-07-17T12:46:00.955Z",
  "networkType": "ethereum",
  "devdoc": {
    "kind": "dev",
    "methods": {},
    "version": 1
  },
  "userdoc": {
    "kind": "user",
    "methods": {},
    "version": 1
  }
}